LOG ON
Sample LogIn FIX Message sent to LMAX
8=FIX.4.4|9=102|35=A|34=1|49=FIXtest1|52=20120924-14:05:44.817|56=LMXBDM|553=FIXtest1|554=Password1|98=0|108=30|141=Y|10=011|

*note the Tag 108 = Heartbeat interval

Sample response from LMAX
8=FIX.4.4|9=75|35=A|49=LMXBDM|56=FIXtest1|34=1|52=20120924-14:05:44.872|98=0|108=30|141=Y|10=210|

HEARTBEAT
Sample Heartbeat on the Trading Stream sent to LMAX to keep the Trading stream alive
8=FIX.4.4|9=59|35=0|34=5738|49=FIXtest1|52=20121003-08:44:38.692|56=LMXBD|10=212|

TEST REQUEST
Sample sent from LMAX if Heartbeat is not received within the Heartbeat interval (Tag 108 on Log On)
8=FIX.4.4|9=64|35=1|49=FIXtest1|56=LMXBDM|34=8|52=20121003-09:06:30|112=110630|10=164|

Response from LMAX
8=FIX.4.4|9=70|35=0|49=LMXBDM|56=FIXtest1|34=367|52=20121003-09:06:30.351|112=110630|10=207|

*note the Test Request ID tag (112), the heartbeat response needs to include this tag so the party sending the test request know the that the response is specific to the test request

MARKET DATA
Sample Single Market Data requests to LMAX
8=FIX.4.4|9=123|35=V|34=2|49=FIXtest1|52=20120924-14:05:44.952|56=LMXBDM|262=EURUSD|263=1|264=1|265=0|146=1|48=4001|22=8|267=2|269=0|269=1|10=028|

Sample Market Depth (tag 264) = 5.  Make this 0 for Full Book 

8=FIX.4.4|9=530|35=V|49=customer|56=LMXBLM|34=3|52=20130521-06:12:10|262=REQ00001|263=1|264=5|265=0|267=2|269=0|269=1|146=30|48=100089|22=8|48=100091|22=8|48=100093|22=8|48=100095|22=8|48=100097|22=8|48=100099|22=8|48=100101|22=8|48=100105|22=8|48=100613|22=8|48=100619|22=8|48=100667|22=8|48=100669|22=8|48=100671|22=8|48=4001|22=8|48=4002|22=8|48=4003|22=8|48=4004|22=8|48=4005|22=8|48=4006|22=8|48=4007|22=8|48=4008|22=8|48=4009|22=8|48=4010|22=8|48=4011|22=8|48=4012|22=8|48=4013|22=8|48=4014|22=8|48=4015|22=8|48=4016|22=8|48=4017|22=8|10=177|

Sample Market Data responses from LMAX
8=FIX.4.4|9=165|35=W|49=LMXBDM|56=FIXtest1|34=3|52=20120924-14:05:45.096|262=EURUSD|48=4001|22=8|268=2|269=0|270=91.94|271=100|272=20120924|273=14:05:39.636|269=1|270=91.98|271=100|10=071|


TRADING
Sample Market Order sent to LMAX
8=FIX.4.4|9=128|35=D|34=3431|49=LMAXMT4|52=20121002-14:47:20.648|56=LMXBL|11=212860|22=8|38=0.1|40=1|48=4001|54=1|59=3|60=20121002-14:47:20.648|10=228|

Sample Market Order Acknowledgement Response from LMAX
8=FIX.4.4|9=204|35=8|49=LMXBL|56=LMAXMT4|34=5215|52=20121002-14:47:20.653|1=1608780500|11=212860|48=4001|22=8|54=1|37=AAGJHQAAAAAenYXp|59=3|60=20121002-14:47:20.639|6=0|17=X+QK1AAAAAJU3yh+|39=0|150=0|14=0|151=0.1|38=0.1|10=207|

Sample Market Order Execution Response from LMAX
8=FIX.4.4|9=228|35=8|49=LMXBL|56=LMAXMT4|34=5216|52=20121002-14:47:20.653|1=1608780500|11=212860|48=4001|22=8|54=1|37=AAGJHQAAAAAenYXp|59=3|60=20121002-14:47:20.639|6=1.29355|17=X+QK1AAAAAJU3yh/|38=0.1|39=2|150=F|14=0.1|151=0|32=0.1|31=1.29355|10=100|
